:100000000C9462000C948A000C948A000C948A0070
:100010000C948A000C948A000C948A000C948A0038
:100020000C948A000C948A000C948A000C948A0028
:100030000C948A000C948A000C948A000C948A0018
:100040000C9468030C948A000C9436030C941003EF
:100050000C948A000C948A000C948A000C948A00F8
:100060000C948A000C948A000000000024002700F1
:100070002A0000000000250028002B0000000000DE
:1000800023002600290004040404040404040202DA
:100090000202020203030303030301020408102007
:1000A0004080010204081020010204081020000012
:1000B0000008000201000003040700000000000027
:1000C0000000B20311241FBECFEFD8E0DEBFCDBFCA
:1000D00012E0A0E0B1E0EAE8FCE002C005900D9279
:1000E000AC33B107D9F723E0ACE3B2E001C01D9215
:1000F000A135B207E1F710E0C2E6D0E004C02197D5
:10010000FE010E943D06C136D107C9F70E943F0497
:100110000C9443060C94000096E0899FD0011124B2
:10012000AE51BD4F90967C936E935F9791E0919600
:100130009C939197E0914F03F091500390914E035F
:10014000992339F0309751F0811108C08091FE0257
:100150000994309719F05C968C91FACF0895CF925C
:10016000DF92EF92FF920F931F9396E0899FF00129
:100170001124EE51FD4F11A2278D30A12130310500
:1001800051F178F02230310509F451C023303105A6
:1001900009F452C01F910F91FF90EF90DF90CF9024
:1001A00008956623B9F361E070E00E948C002FB7D8
:1001B000F8948091410290914202A0914302B09143
:1001C00044022FBF80933A0390933B03A0933C03D8
:1001D000B0933D03DFCF9FB7F894C0904102D09019
:1001E0004202E0904302F09044029FBF00913A0324
:1001F00010913B0320913C0330913D03C01AD10A7A
:10020000E20AF30A00914C0310914D0330E020E024
:100210000C151D052E053F0550F462E070E01F919E
:100220000F91FF90EF90DF90CF900C948C006111B4
:10023000B1CF63E070E0F3CF70E060E0F0CFAF9259
:10024000BF92CF92DF92EF92FF920F931F93CF93C3
:10025000DF936C017B018B01040F151FEB015E0125
:10026000AE18BF08C017D10759F06991D601ED91BA
:10027000FC910190F081E02DC6010995892B79F759
:10028000C501DF91CF911F910F91FF90EF90DF900B
:10029000CF90BF90AF900895FC01538D448D252FD2
:1002A00030E0842F90E0821B930B541710F0CF9610
:1002B000089501970895FC01918D828D981761F042
:1002C000A28DAE0FBF2FB11D5D968C91928D9F5F59
:1002D0009F73928F90E008958FEF9FEF0895FC0138
:1002E000918D828D981731F0828DE80FF11D858DEB
:1002F00090E008958FEF9FEF0895FC01918D228D7E
:10030000892F90E0805C9F4F821B91098F73992702
:10031000089585E492E00E947D0121E0892B09F493
:1003200020E0822F089580E090E0892B29F00E9440
:10033000890181110C9400000895FC01A48DA80F7F
:10034000B92FB11DA35ABF4F2C91848D90E0019617
:100350008F739927848FA689B7892C93A089B18937
:100360008C91837080648C93938D848D981306C0D8
:100370000288F389E02D80818F7D80830895EF923C
:10038000FF920F931F93CF93DF93EC0181E0888F4F
:100390009B8D8C8D98131AC0E889F989808185FF1F
:1003A00015C09FB7F894EE89FF896083E889F989C1
:1003B00080818370806480839FBF81E090E0DF91C3
:1003C000CF911F910F91FF90EF900895F62E0B8D16
:1003D00010E00F5F1F4F0F731127E02E8C8D8E11D1
:1003E0000CC00FB607FCFACFE889F989808185FF38
:1003F000F5CFCE010E949D01F1CFEB8DEC0FFD2FCB
:10040000F11DE35AFF4FF0829FB7F8940B8FEA89F2
:10041000FB8980818062CFCFCF93DF93EC01888D01
:100420008823B9F0AA89BB89E889F9898C9185FD6F
:1004300003C0808186FD0DC00FB607FCF7CF8C91FD
:1004400085FFF2CF808185FFEDCFCE010E949D0117
:10045000E9CFDF91CF910895833081F028F4813086
:1004600099F08230A9F008958730A9F08830C9F05A
:100470008430B1F4809180008F7D03C08091800032
:100480008F7780938000089584B58F7784BD089519
:1004900084B58F7DFBCF8091B0008F778093B000C3
:1004A00008958091B0008F7DF9CFCF93DF93282FEF
:1004B00030E0F901E255FF4F8491F901E656FF4F14
:1004C000D491F901EA57FF4FC491CC23A1F08111D7
:1004D0000E942C02EC2FF0E0EE0FFF1FE458FF4FBC
:1004E000A591B491EC91ED2381E090E009F480E0D6
:1004F000DF91CF91089580E090E0FACF862F0C94A1
:1005000055021F93CF93DF93282F30E0F901E25576
:10051000FF4F8491F901E656FF4FD491F901EA5754
:10052000FF4FC491CC23A9F0162F81110E942C02F9
:10053000EC2FF0E0EE0FFF1FEE58FF4FA591B491A6
:100540008FB7F894EC91111108C0D095DE23DC939D
:100550008FBFDF91CF911F910895DE2BF8CF862FAB
:10056000642F0C948102CF93DF9390E0FC01E65658
:10057000FF4F24918A579F4FFC0184918823C9F033
:1005800090E0880F991FFC01E859FF4FA591B491A5
:10059000FC01EE58FF4FC591D49161110DC09FB77A
:1005A000F8948C91209582238C938881282328832A
:1005B0009FBFDF91CF910895623051F49FB7F894B7
:1005C0003C91822F809583238C93E8812E2BEFCF53
:1005D0008FB7F894EC912E2B2C938FBFEACF862FF8
:1005E000642F0C94B302CF93DF93FC0101900020A1
:1005F000E9F73197AF01481B590BBC0185E492E044
:100600000E941F01EC0142E050E064E371E085E4E8
:1006100092E00E941F018C0F9D1FDF91CF910895E2
:100620001F920F920FB60F9211242F933F934F9367
:100630005F936F937F938F939F93AF93BF93EF934A
:10064000FF9385E492E00E949D01FF91EF91BF919D
:10065000AF919F918F917F916F915F914F913F915A
:100660002F910F900FBE0F901F9018951F920F9211
:100670000FB60F9211242F938F939F93EF93FF93B5
:10068000E0915502F09156028081E0915B02F09179
:100690005C0282FD1BC0908180915E028F5F8F7330
:1006A00020915F02821741F0E0915E02F0E0EB5B87
:1006B000FD4F958F80935E02FF91EF919F918F91F7
:1006C0002F910F900FBE0F901F9018958081F4CF3F
:1006D0001F920F920FB60F9211242F933F938F9377
:1006E0009F93AF93BF938091410290914202A0915A
:1006F0004302B09144023091400223E0230F2D3792
:1007000058F50196A11DB11D20934002809341022E
:1007100090934202A0934302B093440280913C0222
:1007200090913D02A0913E02B0913F020196A11D21
:10073000B11D80933C0290933D02A0933E02B09382
:100740003F02BF91AF919F918F913F912F910F9059
:100750000FBE0F901F90189526E8230F0296A11D3B
:10076000B11DD2CF109248021092470288EE93E05A
:10077000A0E0B0E08093490290934A02A0934B021C
:10078000B0934C028CE191E0909346028093450235
:1007900085EC90E0909352028093510284EC90E0BB
:1007A000909354028093530280EC90E09093560211
:1007B0008093550281EC90E0909358028093570209
:1007C00082EC90E090935A028093590286EC90E07C
:1007D00090935C0280935B0210925E0210925F0223
:1007E00010926002109261021092E4021092E802EC
:1007F0001092E7021092E9028EE291E09093E302F8
:100800008093E202EEEFF2E01082148213821582EE
:10081000369683E0EA33F807B9F784E091E09093E5
:1008200045038093440380E091E0909347038093D5
:10083000460384E0809348038093490388E091E075
:1008400090934303809342038AE090E090934B039C
:1008500080934A0384EF91E090934D0380934C037F
:100860001092500310924F0310923E0310923F03D8
:10087000109240031092410310924E030895789411
:1008800084B5826084BD84B5816084BD85B5826095
:1008900085BD85B5816085BD80916E008160809346
:1008A0006E001092810080918100826080938100AF
:1008B00080918100816080938100809180008160BF
:1008C000809380008091B10084608093B10080911A
:1008D000B00081608093B00080917A008460809342
:1008E0007A0080917A00826080937A0080917A0009
:1008F000816080937A0080917A00806880937A008A
:100900001092C100E0915502F091560282E080837E
:10091000E0915102F09152021082E0915302F09165
:1009200054028FEC808310925D02E0915902F091A5
:100930005A0286E08083E0915702F091580280814C
:1009400080618083E0915702F09158028081886035
:100950008083E0915702F091580280818068808303
:10096000E0915702F091580280818F7D8083812C25
:10097000912C5401839422242A94322C50E0652E29
:1009800050E0752E51E050934E038FB7F89440918C
:1009900041025091420260914302709144028FBF24
:1009A00080913E0390913F03A0914003B091410399
:1009B000481B590B6A0B7B0B80914A0390914B03A8
:1009C000B0E0A0E084179507A607B70708F022C19A
:1009D000C0E080914803C81760F4E0914403F091AF
:1009E0004503EC0FF11D62E080810E94B302CF5FEE
:1009F000F0CF512C80914903581608F05FC0052DA7
:100A000010E0E0914603F0914703E00FF11F61E031
:100A100080810E94B302E0914603F0914703E00F0A
:100A2000F11F60E080810E948102D501C401052C84
:100A300004C0880F991FAA1FBB1F0A94D2F76C012C
:100A40007C01E094F094412C809148034816F8F41E
:100A5000C42DD0E0E0914403F0914503EC0FFD1F5D
:100A600080810E9455022496CC0FDD1FCE51DD4FB0
:100A7000892B41F4888199818C299D2999838883C8
:100A80004394E2CF888199818E219F21F7CFE09115
:100A90004603F0914703E00FF11F61E080810E945F
:100AA00081028091460390914703080F191F60E06F
:100AB000F80180810E94B30253949CCFC2EED2E031
:100AC000FE01878D90A1892B21F4148E368E258E00
:100AD00011A2369653E0EE31F50799F710E08091B8
:100AE0004803181708F053C000E0E12EF12CEE0C7B
:100AF000FF1CC70186519D4F7C01209149030217BD
:100B000008F043C0F70160817181002E02C0769524
:100B100067950A94E2F7129F90011124200F311D6E
:100B2000E2EEF2E080E0458D568D2417350709F49A
:100B3000A2C08F5F36968A30B1F760FF24C0E2EE24
:100B4000F2E090E080E0448D411118C0E091420352
:100B5000F0914303E20FF31F408156E0589FF001EC
:100B6000599FF00D1124EE51FD4F448F368F258F84
:100B700010A2178E61E00E94AF0005C00196369664
:100B80008A30910501F70F5FB8CF1F5FA8CF80E0D3
:100B900099A19111892F269693E0CE31D907C1F7FB
:100BA0009FB7F894409141025091420260914302F4
:100BB000709144029FBF40933E0350933F03609364
:100BC000400370934103882329F180910303882314
:100BD00009F180910103909102030197D9F480916A
:100BE000FE0220910103309102032130310531F4DE
:100BF0008033A1F487E391E00E94F3026114710451
:100C000009F4C0CE0E948901882309F4BBCE0E945A
:100C10000000B8CE10924E0380E0E3CF813319F488
:100C20008DE491E0E9CF823319F489E691E0E4CFD5
:100C3000833319F484E891E0DFCF843319F48DE92C
:100C400091E0DACF853319F489EB91E0D5CF863383
:100C500019F485ED91E0D0CF873319F48DEE91E052
:100C6000CBCF883319F487E092E0C6CF893331F6D1
:100C700080E292E0C1CF61707ECFEE0FFF1F059042
:0A0C8000F491E02D0994F894FFCFE1
:100C8A000504030209080706313233413435364276
:100C9A00373839432A30234400000000BF011F01BE
:100CAA004C010C027D015B016F0100000000EF02A4
:100CBA00AF027E020D0A0053656C616D6174206497
:100CCA006174616E672064692055474D0053656CF5
:100CDA00616D617420646174616E67206469204982
:100CEA006E646F6D617265740053656C616D6174D9
:100CFA0020646174616E67206469204D6174616863
:100D0A006172690053656C616D617420646174611C
:100D1A006E67206469204D69726F74610053656C57
:100D2A00616D617420646174616E67206469204D2D
:100D3A00616E612D6D616E610053656C616D6174E8
:100D4A0020646174616E67206469204D616E612060
:100D5A0053616A610053656C616D617420646174EA
:100D6A00616E672064692052756D61680053656C15
:100D7A00616D617420646174616E672064692053D7
:100D8A00656B6F6C61680053656C616D617420649A
:100D9A006174616E67206469204B616E746F7200C2
:100DAA0053656C616D617420646174616E6720645F
:0C0DBA006920476564756E6720310000F9
:00000001FF
